{
  "_format": "hh-sol-artifact-1",
  "contractName": "NaniBoronatLazyMint",
  "sourceName": "contracts/NaniBoronatLazyMint.sol",
  "abi": [
    {
      "inputs": [
        {
          "internalType": "string",
          "name": "name",
          "type": "string"
        },
        {
          "internalType": "string",
          "name": "symbol",
          "type": "string"
        },
        {
          "internalType": "string",
          "name": "baseTokenURI",
          "type": "string"
        },
        {
          "internalType": "string",
          "name": "contractURI_",
          "type": "string"
        }
      ],
      "stateMutability": "nonpayable",
      "type": "constructor"
    },
    {
      "inputs": [],
      "name": "contractURI",
      "outputs": [
        {
          "internalType": "string",
          "name": "",
          "type": "string"
        }
      ],
      "stateMutability": "view",
      "type": "function"
    },
    {
      "inputs": [
        {
          "internalType": "string",
          "name": "name",
          "type": "string"
        },
        {
          "internalType": "string",
          "name": "symbol",
          "type": "string"
        },
        {
          "internalType": "string",
          "name": "baseTokenURI",
          "type": "string"
        }
      ],
      "stateMutability": "nonpayable",
      "type": "constructor"
    },
    {
      "anonymous": false,
      "inputs": [
        {
          "indexed": true,
          "internalType": "address",
          "name": "owner",
          "type": "address"
        },
        {
          "indexed": true,
          "internalType": "address",
          "name": "approved",
          "type": "address"
        },
        {
          "indexed": true,
          "internalType": "uint256",
          "name": "tokenId",
          "type": "uint256"
        }
      ],
      "name": "Approval",
      "type": "event"
    },
    {
      "anonymous": false,
      "inputs": [
        {
          "indexed": true,
          "internalType": "address",
          "name": "owner",
          "type": "address"
        },
        {
          "indexed": true,
          "internalType": "address",
          "name": "operator",
          "type": "address"
        },
        {
          "indexed": false,
          "internalType": "bool",
          "name": "approved",
          "type": "bool"
        }
      ],
      "name": "ApprovalForAll",
      "type": "event"
    },
    {
      "anonymous": false,
      "inputs": [
        {
          "indexed": false,
          "internalType": "uint256",
          "name": "_fromTokenId",
          "type": "uint256"
        },
        {
          "indexed": false,
          "internalType": "uint256",
          "name": "_toTokenId",
          "type": "uint256"
        }
      ],
      "name": "BatchMetadataUpdate",
      "type": "event"
    },
    {
      "anonymous": false,
      "inputs": [
        {
          "indexed": true,
          "internalType": "string",
          "name": "lazyId",
          "type": "string"
        },
        {
          "indexed": false,
          "internalType": "string",
          "name": "metadataURI",
          "type": "string"
        },
        {
          "indexed": false,
          "internalType": "uint256",
          "name": "price",
          "type": "uint256"
        },
        {
          "indexed": false,
          "internalType": "uint256",
          "name": "royaltyPercentage",
          "type": "uint256"
        }
      ],
      "name": "LazyNFTRegistered",
      "type": "event"
    },
    {
      "anonymous": false,
      "inputs": [
        {
          "indexed": false,
          "internalType": "uint256",
          "name": "_tokenId",
          "type": "uint256"
        }
      ],
      "name": "MetadataUpdate",
      "type": "event"
    },
    {
      "anonymous": false,
      "inputs": [
        {
          "indexed": true,
          "internalType": "uint256",
          "name": "tokenId",
          "type": "uint256"
        },
        {
          "indexed": true,
          "internalType": "string",
          "name": "lazyId",
          "type": "string"
        },
        {
          "indexed": true,
          "internalType": "address",
          "name": "owner",
          "type": "address"
        },
        {
          "indexed": false,
          "internalType": "string",
          "name": "metadataURI",
          "type": "string"
        },
        {
          "indexed": false,
          "internalType": "uint256",
          "name": "price",
          "type": "uint256"
        }
      ],
      "name": "NFTLazyMinted",
      "type": "event"
    },
    {
      "anonymous": false,
      "inputs": [
        {
          "indexed": true,
          "internalType": "address",
          "name": "previousOwner",
          "type": "address"
        },
        {
          "indexed": true,
          "internalType": "address",
          "name": "newOwner",
          "type": "address"
        }
      ],
      "name": "OwnershipTransferred",
      "type": "event"
    },
    {
      "anonymous": false,
      "inputs": [
        {
          "indexed": false,
          "internalType": "address",
          "name": "royaltyRecipient2",
          "type": "address"
        }
      ],
      "name": "RoyaltyRecipientUpdated",
      "type": "event"
    },
    {
      "anonymous": false,
      "inputs": [
        {
          "indexed": true,
          "internalType": "address",
          "name": "from",
          "type": "address"
        },
        {
          "indexed": true,
          "internalType": "address",
          "name": "to",
          "type": "address"
        },
        {
          "indexed": true,
          "internalType": "uint256",
          "name": "tokenId",
          "type": "uint256"
        }
      ],
      "name": "Transfer",
      "type": "event"
    },
    {
      "inputs": [
        {
          "internalType": "address",
          "name": "to",
          "type": "address"
        },
        {
          "internalType": "uint256",
          "name": "tokenId",
          "type": "uint256"
        }
      ],
      "name": "approve",
      "outputs": [],
      "stateMutability": "nonpayable",
      "type": "function"
    },
    {
      "inputs": [
        {
          "internalType": "uint256",
          "name": "",
          "type": "uint256"
        }
      ],
      "name": "availableNFTIds",
      "outputs": [
        {
          "internalType": "string",
          "name": "",
          "type": "string"
        }
      ],
      "stateMutability": "view",
      "type": "function"
    },
    {
      "inputs": [
        {
          "internalType": "string",
          "name": "",
          "type": "string"
        }
      ],
      "name": "availableNFTs",
      "outputs": [
        {
          "internalType": "string",
          "name": "metadataURI",
          "type": "string"
        },
        {
          "internalType": "uint256",
          "name": "price",
          "type": "uint256"
        },
        {
          "internalType": "uint256",
          "name": "royaltyPercentage",
          "type": "uint256"
        },
        {
          "internalType": "bool",
          "name": "isActive",
          "type": "bool"
        }
      ],
      "stateMutability": "view",
      "type": "function"
    },
    {
      "inputs": [
        {
          "internalType": "address",
          "name": "owner",
          "type": "address"
        }
      ],
      "name": "balanceOf",
      "outputs": [
        {
          "internalType": "uint256",
          "name": "",
          "type": "uint256"
        }
      ],
      "stateMutability": "view",
      "type": "function"
    },
    {
      "inputs": [
        {
          "internalType": "string[]",
          "name": "lazyIds",
          "type": "string[]"
        },
        {
          "internalType": "string[]",
          "name": "metadataURIs",
          "type": "string[]"
        },
        {
          "internalType": "uint256[]",
          "name": "prices",
          "type": "uint256[]"
        },
        {
          "internalType": "uint256[]",
          "name": "royaltyPercentages",
          "type": "uint256[]"
        }
      ],
      "name": "batchRegisterLazyNFTs",
      "outputs": [],
      "stateMutability": "nonpayable",
      "type": "function"
    },
    {
      "inputs": [
        {
          "internalType": "uint256",
          "name": "",
          "type": "uint256"
        }
      ],
      "name": "creators",
      "outputs": [
        {
          "internalType": "address",
          "name": "",
          "type": "address"
        }
      ],
      "stateMutability": "view",
      "type": "function"
    },
    {
      "inputs": [
        {
          "internalType": "uint256",
          "name": "tokenId",
          "type": "uint256"
        },
        {
          "internalType": "uint256",
          "name": "salePrice",
          "type": "uint256"
        }
      ],
      "name": "extendedRoyaltyInfo",
      "outputs": [
        {
          "internalType": "address",
          "name": "recipient1",
          "type": "address"
        },
        {
          "internalType": "address",
          "name": "recipient2",
          "type": "address"
        },
        {
          "internalType": "uint256",
          "name": "amount1",
          "type": "uint256"
        },
        {
          "internalType": "uint256",
          "name": "amount2",
          "type": "uint256"
        }
      ],
      "stateMutability": "view",
      "type": "function"
    },
    {
      "inputs": [
        {
          "internalType": "uint256",
          "name": "tokenId",
          "type": "uint256"
        }
      ],
      "name": "getApproved",
      "outputs": [
        {
          "internalType": "address",
          "name": "",
          "type": "address"
        }
      ],
      "stateMutability": "view",
      "type": "function"
    },
    {
      "inputs": [],
      "name": "getAvailableNFTCount",
      "outputs": [
        {
          "internalType": "uint256",
          "name": "",
          "type": "uint256"
        }
      ],
      "stateMutability": "view",
      "type": "function"
    },
    {
      "inputs": [],
      "name": "getAvailableNFTIds",
      "outputs": [
        {
          "internalType": "string[]",
          "name": "",
          "type": "string[]"
        }
      ],
      "stateMutability": "view",
      "type": "function"
    },
    {
      "inputs": [
        {
          "internalType": "uint256",
          "name": "tokenId",
          "type": "uint256"
        }
      ],
      "name": "getCreator",
      "outputs": [
        {
          "internalType": "address",
          "name": "",
          "type": "address"
        }
      ],
      "stateMutability": "view",
      "type": "function"
    },
    {
      "inputs": [
        {
          "internalType": "uint256",
          "name": "tokenId",
          "type": "uint256"
        }
      ],
      "name": "getRoyaltyPercentage",
      "outputs": [
        {
          "internalType": "uint256",
          "name": "",
          "type": "uint256"
        }
      ],
      "stateMutability": "view",
      "type": "function"
    },
    {
      "inputs": [
        {
          "internalType": "address",
          "name": "owner",
          "type": "address"
        },
        {
          "internalType": "address",
          "name": "operator",
          "type": "address"
        }
      ],
      "name": "isApprovedForAll",
      "outputs": [
        {
          "internalType": "bool",
          "name": "",
          "type": "bool"
        }
      ],
      "stateMutability": "view",
      "type": "function"
    },
    {
      "inputs": [],
      "name": "maxSupply",
      "outputs": [
        {
          "internalType": "uint256",
          "name": "",
          "type": "uint256"
        }
      ],
      "stateMutability": "view",
      "type": "function"
    },
    {
      "inputs": [
        {
          "internalType": "string",
          "name": "lazyId",
          "type": "string"
        },
        {
          "internalType": "address",
          "name": "recipient",
          "type": "address"
        }
      ],
      "name": "mintForRecipient",
      "outputs": [
        {
          "internalType": "uint256",
          "name": "",
          "type": "uint256"
        }
      ],
      "stateMutability": "nonpayable",
      "type": "function"
    },
    {
      "inputs": [],
      "name": "mintPrice",
      "outputs": [
        {
          "internalType": "uint256",
          "name": "",
          "type": "uint256"
        }
      ],
      "stateMutability": "view",
      "type": "function"
    },
    {
      "inputs": [
        {
          "internalType": "uint256",
          "name": "",
          "type": "uint256"
        }
      ],
      "name": "mintedLazyIds",
      "outputs": [
        {
          "internalType": "string",
          "name": "",
          "type": "string"
        }
      ],
      "stateMutability": "view",
      "type": "function"
    },
    {
      "inputs": [],
      "name": "name",
      "outputs": [
        {
          "internalType": "string",
          "name": "",
          "type": "string"
        }
      ],
      "stateMutability": "view",
      "type": "function"
    },
    {
      "inputs": [],
      "name": "owner",
      "outputs": [
        {
          "internalType": "address",
          "name": "",
          "type": "address"
        }
      ],
      "stateMutability": "view",
      "type": "function"
    },
    {
      "inputs": [
        {
          "internalType": "uint256",
          "name": "tokenId",
          "type": "uint256"
        }
      ],
      "name": "ownerOf",
      "outputs": [
        {
          "internalType": "address",
          "name": "",
          "type": "address"
        }
      ],
      "stateMutability": "view",
      "type": "function"
    },
    {
      "inputs": [
        {
          "internalType": "string",
          "name": "lazyId",
          "type": "string"
        }
      ],
      "name": "purchaseAndMint",
      "outputs": [
        {
          "internalType": "uint256",
          "name": "",
          "type": "uint256"
        }
      ],
      "stateMutability": "payable",
      "type": "function"
    },
    {
      "inputs": [
        {
          "internalType": "string",
          "name": "lazyId",
          "type": "string"
        },
        {
          "internalType": "string",
          "name": "metadataURI",
          "type": "string"
        },
        {
          "internalType": "uint256",
          "name": "price",
          "type": "uint256"
        },
        {
          "internalType": "uint256",
          "name": "royaltyPercentage",
          "type": "uint256"
        }
      ],
      "name": "registerLazyNFT",
      "outputs": [],
      "stateMutability": "nonpayable",
      "type": "function"
    },
    {
      "inputs": [],
      "name": "renounceOwnership",
      "outputs": [],
      "stateMutability": "nonpayable",
      "type": "function"
    },
    {
      "inputs": [
        {
          "internalType": "uint256",
          "name": "",
          "type": "uint256"
        }
      ],
      "name": "royalties",
      "outputs": [
        {
          "internalType": "uint256",
          "name": "",
          "type": "uint256"
        }
      ],
      "stateMutability": "view",
      "type": "function"
    },
    {
      "inputs": [
        {
          "internalType": "uint256",
          "name": "tokenId",
          "type": "uint256"
        },
        {
          "internalType": "uint256",
          "name": "salePrice",
          "type": "uint256"
        }
      ],
      "name": "royaltyInfo",
      "outputs": [
        {
          "internalType": "address",
          "name": "receiver",
          "type": "address"
        },
        {
          "internalType": "uint256",
          "name": "royaltyAmount",
          "type": "uint256"
        }
      ],
      "stateMutability": "view",
      "type": "function"
    },
    {
      "inputs": [],
      "name": "royaltyRecipient1",
      "outputs": [
        {
          "internalType": "address",
          "name": "",
          "type": "address"
        }
      ],
      "stateMutability": "view",
      "type": "function"
    },
    {
      "inputs": [],
      "name": "royaltyRecipient2",
      "outputs": [
        {
          "internalType": "address",
          "name": "",
          "type": "address"
        }
      ],
      "stateMutability": "view",
      "type": "function"
    },
    {
      "inputs": [
        {
          "internalType": "address",
          "name": "from",
          "type": "address"
        },
        {
          "internalType": "address",
          "name": "to",
          "type": "address"
        },
        {
          "internalType": "uint256",
          "name": "tokenId",
          "type": "uint256"
        }
      ],
      "name": "safeTransferFrom",
      "outputs": [],
      "stateMutability": "nonpayable",
      "type": "function"
    },
    {
      "inputs": [
        {
          "internalType": "address",
          "name": "from",
          "type": "address"
        },
        {
          "internalType": "address",
          "name": "to",
          "type": "address"
        },
        {
          "internalType": "uint256",
          "name": "tokenId",
          "type": "uint256"
        },
        {
          "internalType": "bytes",
          "name": "data",
          "type": "bytes"
        }
      ],
      "name": "safeTransferFrom",
      "outputs": [],
      "stateMutability": "nonpayable",
      "type": "function"
    },
    {
      "inputs": [
        {
          "internalType": "address",
          "name": "operator",
          "type": "address"
        },
        {
          "internalType": "bool",
          "name": "approved",
          "type": "bool"
        }
      ],
      "name": "setApprovalForAll",
      "outputs": [],
      "stateMutability": "nonpayable",
      "type": "function"
    },
    {
      "inputs": [
        {
          "internalType": "string",
          "name": "newBaseURI",
          "type": "string"
        }
      ],
      "name": "setBaseURI",
      "outputs": [],
      "stateMutability": "nonpayable",
      "type": "function"
    },
    {
      "inputs": [
        {
          "internalType": "string",
          "name": "lazyId",
          "type": "string"
        },
        {
          "internalType": "uint256",
          "name": "newPrice",
          "type": "uint256"
        }
      ],
      "name": "setLazyNFTPrice",
      "outputs": [],
      "stateMutability": "nonpayable",
      "type": "function"
    },
    {
      "inputs": [
        {
          "internalType": "uint256",
          "name": "newMaxSupply",
          "type": "uint256"
        }
      ],
      "name": "setMaxSupply",
      "outputs": [],
      "stateMutability": "nonpayable",
      "type": "function"
    },
    {
      "inputs": [
        {
          "internalType": "uint256",
          "name": "newPrice",
          "type": "uint256"
        }
      ],
      "name": "setMintPrice",
      "outputs": [],
      "stateMutability": "nonpayable",
      "type": "function"
    },
    {
      "inputs": [
        {
          "internalType": "address",
          "name": "recipient2",
          "type": "address"
        }
      ],
      "name": "setRoyaltyRecipient2",
      "outputs": [],
      "stateMutability": "nonpayable",
      "type": "function"
    },
    {
      "inputs": [
        {
          "internalType": "bytes4",
          "name": "interfaceId",
          "type": "bytes4"
        }
      ],
      "name": "supportsInterface",
      "outputs": [
        {
          "internalType": "bool",
          "name": "",
          "type": "bool"
        }
      ],
      "stateMutability": "view",
      "type": "function"
    },
    {
      "inputs": [],
      "name": "symbol",
      "outputs": [
        {
          "internalType": "string",
          "name": "",
          "type": "string"
        }
      ],
      "stateMutability": "view",
      "type": "function"
    },
    {
      "inputs": [
        {
          "internalType": "uint256",
          "name": "index",
          "type": "uint256"
        }
      ],
      "name": "tokenByIndex",
      "outputs": [
        {
          "internalType": "uint256",
          "name": "",
          "type": "uint256"
        }
      ],
      "stateMutability": "view",
      "type": "function"
    },
    {
      "inputs": [
        {
          "internalType": "address",
          "name": "owner",
          "type": "address"
        },
        {
          "internalType": "uint256",
          "name": "index",
          "type": "uint256"
        }
      ],
      "name": "tokenOfOwnerByIndex",
      "outputs": [
        {
          "internalType": "uint256",
          "name": "",
          "type": "uint256"
        }
      ],
      "stateMutability": "view",
      "type": "function"
    },
    {
      "inputs": [
        {
          "internalType": "uint256",
          "name": "tokenId",
          "type": "uint256"
        }
      ],
      "name": "tokenURI",
      "outputs": [
        {
          "internalType": "string",
          "name": "",
          "type": "string"
        }
      ],
      "stateMutability": "view",
      "type": "function"
    },
    {
      "inputs": [],
      "name": "totalMinted",
      "outputs": [
        {
          "internalType": "uint256",
          "name": "",
          "type": "uint256"
        }
      ],
      "stateMutability": "view",
      "type": "function"
    },
    {
      "inputs": [],
      "name": "totalSupply",
      "outputs": [
        {
          "internalType": "uint256",
          "name": "",
          "type": "uint256"
        }
      ],
      "stateMutability": "view",
      "type": "function"
    },
    {
      "inputs": [
        {
          "internalType": "address",
          "name": "from",
          "type": "address"
        },
        {
          "internalType": "address",
          "name": "to",
          "type": "address"
        },
        {
          "internalType": "uint256",
          "name": "tokenId",
          "type": "uint256"
        }
      ],
      "name": "transferFrom",
      "outputs": [],
      "stateMutability": "nonpayable",
      "type": "function"
    },
    {
      "inputs": [
        {
          "internalType": "address",
          "name": "newOwner",
          "type": "address"
        }
      ],
      "name": "transferOwnership",
      "outputs": [],
      "stateMutability": "nonpayable",
      "type": "function"
    },
    {
      "inputs": [],
      "name": "withdraw",
      "outputs": [],
      "stateMutability": "nonpayable",
      "type": "function"
    }
  ],
  "bytecode": "0x6080604052652d79883d2000600e556103e8600f55601180546001600160a01b0319908116737b327319bce35183c50fcbe05c3f5112de4076ea1790915560128054909116739fd28f3bec4590015d4846bd8b041389ed3f20871790553480156200006957600080fd5b5060405162003f4638038062003f468339810160408190526200008c9162000200565b828260006200009c838262000320565b506001620000ab828262000320565b505050620000c8620000c2620000e560201b60201c565b620000e9565b6001600c556010620000db828262000320565b50505050620003ec565b3390565b600b80546001600160a01b038381166001600160a01b0319831681179093556040519116919082907f8be0079c531659141344cd1fd0a4f28419497f9722a3daafe3b4186f6b6457e090600090a35050565b634e487b7160e01b600052604160045260246000fd5b600082601f8301126200016357600080fd5b81516001600160401b03808211156200018057620001806200013b565b604051601f8301601f19908116603f01168101908282118183101715620001ab57620001ab6200013b565b81604052838152602092508683858801011115620001c857600080fd5b600091505b83821015620001ec5785820183015181830184015290820190620001cd565b600093810190920192909252949350505050565b6000806000606084860312156200021657600080fd5b83516001600160401b03808211156200022e57600080fd5b6200023c8783880162000151565b945060208601519150808211156200025357600080fd5b620002618783880162000151565b935060408601519150808211156200027857600080fd5b50620002878682870162000151565b9150509250925092565b600181811c90821680620002a657607f821691505b602082108103620002c757634e487b7160e01b600052602260045260246000fd5b50919050565b601f8211156200031b57600081815260208120601f850160051c81016020861015620002f65750805b601f850160051c820191505b81811015620003175782815560010162000302565b5050505b505050565b81516001600160401b038111156200033c576200033c6200013b565b62000354816200034d845462000291565b84620002cd565b602080601f8311600181146200038c5760008415620003735750858301515b600019600386901b1c1916600185901b17855562000317565b600085815260208120601f198616915b82811015620003bd578886015182559484019460019091019084016200039c565b5085821015620003dc5787850151600019600388901b60f8161c191681555b5050505050600190811b01905550565b613b4a80620003fc6000396000f3fe6080604052600436106102725760003560e01c80636f8b44b01161014f578063ad8bb0a1116100c1578063d1b952781161007a578063d1b95278146107b6578063d48e638a146107d6578063d5abeb01146107f6578063e985e9c51461080c578063f2fde38b14610855578063f4a0a5281461087557600080fd5b8063ad8bb0a1146106c0578063b88d4fde146106d5578063c10bba9e146106f5578063c87b56dd14610715578063ca5cf29214610735578063cd53d08e1461078057600080fd5b80637f77f574116101135780637f77f574146106095780638da5cb5b1461063657806395d89b4114610654578063a22cb46514610669578063a2309ff814610689578063a4a854701461069e57600080fd5b80636f8b44b01461057457806370a0823114610594578063715018a6146105b457806371cf1466146105c957806376a17510146105e957600080fd5b80633fd97c49116101e85780635eea5110116101ac5780635eea5110146104be5780636352211e146104de5780636817c76c146104fe5780636aa95589146105145780636d0c1dd9146105345780636eb3ce941461055457600080fd5b80633fd97c491461042b57806342842e0e1461044b5780634f6ccce71461046b578063534f65401461048b57806355f804b31461049e57600080fd5b806318160ddd1161023a57806318160ddd1461035857806323b872dd146103775780632a55205a146103975780632f745c59146103d65780633ccfd60b146103f65780633e9001801461040b57600080fd5b806301ffc9a71461027757806306fdde03146102ac578063081812fc146102ce578063095ea7b3146103065780631090526814610328575b600080fd5b34801561028357600080fd5b50610297610292366004613027565b610895565b60405190151581526020015b60405180910390f35b3480156102b857600080fd5b506102c16108c0565b6040516102a39190613094565b3480156102da57600080fd5b506102ee6102e93660046130a7565b610952565b6040516001600160a01b0390911681526020016102a3565b34801561031257600080fd5b506103266103213660046130d7565b610979565b005b34801561033457600080fd5b506103486103433660046131be565b610a93565b6040516102a394939291906131f2565b34801561036457600080fd5b506008545b6040519081526020016102a3565b34801561038357600080fd5b50610326610392366004613223565b610b53565b3480156103a357600080fd5b506103b76103b236600461325f565b610b84565b604080516001600160a01b0390931683526020830191909152016102a3565b3480156103e257600080fd5b506103696103f13660046130d7565b610bea565b34801561040257600080fd5b50610326610c80565b34801561041757600080fd5b50610326610426366004613281565b610d85565b34801561043757600080fd5b506103696104463660046132f4565b611187565b34801561045757600080fd5b50610326610466366004613223565b611480565b34801561047757600080fd5b506103696104863660046130a7565b61149b565b6103696104993660046131be565b61152e565b3480156104aa57600080fd5b506103266104b93660046131be565b6118cb565b3480156104ca57600080fd5b506102c16104d93660046130a7565b6118df565b3480156104ea57600080fd5b506102ee6104f93660046130a7565b611979565b34801561050a57600080fd5b50610369600e5481565b34801561052057600080fd5b5061032661052f366004613341565b6119d9565b34801561054057600080fd5b5061032661054f366004613469565b611a84565b34801561056057600080fd5b506011546102ee906001600160a01b031681565b34801561058057600080fd5b5061032661058f3660046130a7565b611b8c565b3480156105a057600080fd5b506103696105af366004613341565b611bfa565b3480156105c057600080fd5b50610326611c80565b3480156105d557600080fd5b506103266105e4366004613515565b611c94565b3480156105f557600080fd5b506103696106043660046130a7565b611d2a565b34801561061557600080fd5b506103696106243660046130a7565b60166020526000908152604090205481565b34801561064257600080fd5b50600b546001600160a01b03166102ee565b34801561066057600080fd5b506102c1611d64565b34801561067557600080fd5b50610326610684366004613559565b611d73565b34801561069557600080fd5b50610369611d7e565b3480156106aa57600080fd5b506106b3611d8e565b6040516102a39190613595565b3480156106cc57600080fd5b50610369611f18565b3480156106e157600080fd5b506103266106f03660046135f7565b611f94565b34801561070157600080fd5b506102c16107103660046130a7565b611fcc565b34801561072157600080fd5b506102c16107303660046130a7565b611ff7565b34801561074157600080fd5b5061075561075036600461325f565b612002565b604080516001600160a01b0395861681529490931660208501529183015260608201526080016102a3565b34801561078c57600080fd5b506102ee61079b3660046130a7565b6015602052600090815260409020546001600160a01b031681565b3480156107c257600080fd5b506012546102ee906001600160a01b031681565b3480156107e257600080fd5b506102ee6107f13660046130a7565b612078565b34801561080257600080fd5b50610369600f5481565b34801561081857600080fd5b50610297610827366004613666565b6001600160a01b03918216600090815260056020908152604080832093909416825291909152205460ff1690565b34801561086157600080fd5b50610326610870366004613341565b6120f7565b34801561088157600080fd5b506103266108903660046130a7565b612170565b60006001600160e01b0319821663152a902d60e11b14806108ba57506108ba8261217d565b92915050565b6060600080546108cf90613690565b80601f01602080910402602001604051908101604052809291908181526020018280546108fb90613690565b80156109485780601f1061091d57610100808354040283529160200191610948565b820191906000526020600020905b81548152906001019060200180831161092b57829003601f168201915b5050505050905090565b600061095d826121a2565b506000908152600460205260409020546001600160a01b031690565b600061098482611979565b9050806001600160a01b0316836001600160a01b0316036109f65760405162461bcd60e51b815260206004820152602160248201527f4552433732313a20617070726f76616c20746f2063757272656e74206f776e656044820152603960f91b60648201526084015b60405180910390fd5b336001600160a01b0382161480610a125750610a128133610827565b610a845760405162461bcd60e51b815260206004820152603d60248201527f4552433732313a20617070726f76652063616c6c6572206973206e6f7420746f60448201527f6b656e206f776e6572206f7220617070726f76656420666f7220616c6c00000060648201526084016109ed565b610a8e83836121f2565b505050565b8051602081830181018051601382529282019190930120915280548190610ab990613690565b80601f0160208091040260200160405190810160405280929190818152602001828054610ae590613690565b8015610b325780601f10610b0757610100808354040283529160200191610b32565b820191906000526020600020905b815481529060010190602001808311610b1557829003601f168201915b50505050600183015460028401546003909401549293909290915060ff1684565b610b5d3382612260565b610b795760405162461bcd60e51b81526004016109ed906136c4565b610a8e8383836122df565b600080610b9084612450565b610bac5760405162461bcd60e51b81526004016109ed90613711565b6000848152601660205260409020546011546001600160a01b0316612710610bd4838761376a565b610bde9190613781565b92509250509250929050565b6000610bf583611bfa565b8210610c575760405162461bcd60e51b815260206004820152602b60248201527f455243373231456e756d657261626c653a206f776e657220696e646578206f7560448201526a74206f6620626f756e647360a81b60648201526084016109ed565b506001600160a01b03919091166000908152600660209081526040808320938352929052205490565b610c8861246d565b4780610ccd5760405162461bcd60e51b81526020600482015260146024820152734e6f2066756e647320746f20776974686472617760601b60448201526064016109ed565b6000610ce1600b546001600160a01b031690565b6001600160a01b03168260405160006040518083038185875af1925050503d8060008114610d2b576040519150601f19603f3d011682016040523d82523d6000602084013e610d30565b606091505b5050905080610d815760405162461bcd60e51b815260206004820152601860248201527f4661696c656420746f2077697468647261772066756e6473000000000000000060448201526064016109ed565b5050565b610d8d61246d565b6000845111610dd75760405162461bcd60e51b81526020600482015260166024820152754c617a7949442063616e6e6f7420626520656d70747960501b60448201526064016109ed565b6000835111610e285760405162461bcd60e51b815260206004820152601b60248201527f4d657461646174615552492063616e6e6f7420626520656d707479000000000060448201526064016109ed565b610bb8811115610e855760405162461bcd60e51b815260206004820152602260248201527f526f79616c74792063616e6e6f742062652067726561746572207468616e2033604482015261302560f01b60648201526084016109ed565b601384604051610e9591906137a3565b9081526040519081900360200190206003015460ff1615610ef85760405162461bcd60e51b815260206004820152601960248201527f4c617a79494420616c726561647920726567697374657265640000000000000060448201526064016109ed565b60408051808201909152600e8082526d697066733a2f2f697066733a2f2f60901b602083015284518592839290911061107057600160005b8251811015610fa157828181518110610f4b57610f4b6137bf565b602001015160f81c60f81b6001600160f81b031916848281518110610f7257610f726137bf565b01602001516001600160f81b03191614610f8f5760009150610fa1565b80610f99816137d5565b915050610f30565b50801561106e57600060078451610fb891906137ee565b6001600160401b03811115610fcf57610fcf613101565b6040519080825280601f01601f191660200182016040528015610ff9576020820181803683370190505b50905060005b815181101561106a5784611014826007613801565b81518110611024576110246137bf565b602001015160f81c60f81b828281518110611041576110416137bf565b60200101906001600160f81b031916908160001a90535080611062816137d5565b915050610fff565b5093505b505b6040518060800160405280848152602001868152602001858152602001600115158152506013886040516110a491906137a3565b908152604051908190036020019020815181906110c19082613862565b506020820151600182810191909155604083015160028301556060909201516003909101805460ff19169115159190911790556014805491820181556000527fce6d7b5282bd9a3661ae061feed1dbda4e52ab073b1f9285be6e155d9c38d4ec0161112c8882613862565b508660405161113b91906137a3565b60405180910390207f659433a6ed0cfdd794fe26ca78796132e7bc97f0c27bc22608f4f6643f2e6c0284878760405161117693929190613921565b60405180910390a250505050505050565b600061119161246d565b60006013846040516111a391906137a3565b90815260200160405180910390206040518060800160405290816000820180546111cc90613690565b80601f01602080910402602001604051908101604052809291908181526020018280546111f890613690565b80156112455780601f1061121a57610100808354040283529160200191611245565b820191906000526020600020905b81548152906001019060200180831161122857829003601f168201915b5050509183525050600182015460208201526002820154604082015260039091015460ff1615156060918201528101519091506112c45760405162461bcd60e51b815260206004820152601e60248201527f4e4654206e6f7420617661696c61626c6520666f72207075726368617365000060448201526064016109ed565b600f54600d541061130b5760405162461bcd60e51b8152602060048201526011602482015270139195081b1a5b5a5d081c995858da1959607a1b60448201526064016109ed565b6001600160a01b0383166113615760405162461bcd60e51b815260206004820152601960248201527f496e76616c696420726563697069656e7420616464726573730000000000000060448201526064016109ed565b600061136c600d5490565b905061137c600d80546001019055565b61138684826124c7565b6113948183600001516124e1565b600b54600082815260156020908152604080832080546001600160a01b0319166001600160a01b039095169490941790935584830151601682528383205560179052206113e18682613862565b5060006013866040516113f491906137a3565b908152604051908190036020018120600301805492151560ff19909316929092179091556001600160a01b0385169061142e9087906137a3565b6040518091039020827f02f89c24f8e51cceaf7b646032b17f3dfbc5318863585b90a1352ff59ab148da85600001518660200151604051611470929190613946565b60405180910390a4949350505050565b610a8e83838360405180602001604052806000815250611f94565b60006114a660085490565b82106115095760405162461bcd60e51b815260206004820152602c60248201527f455243373231456e756d657261626c653a20676c6f62616c20696e646578206f60448201526b7574206f6620626f756e647360a01b60648201526084016109ed565b6008828154811061151c5761151c6137bf565b90600052602060002001549050919050565b600061153861259d565b600060138360405161154a91906137a3565b908152602001604051809103902060405180608001604052908160008201805461157390613690565b80601f016020809104026020016040519081016040528092919081815260200182805461159f90613690565b80156115ec5780601f106115c1576101008083540402835291602001916115ec565b820191906000526020600020905b8154815290600101906020018083116115cf57829003601f168201915b5050509183525050600182015460208201526002820154604082015260039091015460ff16151560609182015281015190915061166b5760405162461bcd60e51b815260206004820152601e60248201527f4e4654206e6f7420617661696c61626c6520666f72207075726368617365000060448201526064016109ed565b80602001513410156116b65760405162461bcd60e51b8152602060048201526014602482015273125b9cdd59999a58da595b9d081c185e5b595b9d60621b60448201526064016109ed565b600f54600d54106116fd5760405162461bcd60e51b8152602060048201526011602482015270139195081b1a5b5a5d081c995858da1959607a1b60448201526064016109ed565b6000611708600d5490565b9050611718600d80546001019055565b61172233826124c7565b6117308183600001516124e1565b600b54600082815260156020908152604080832080546001600160a01b0319166001600160a01b0390951694909417909355848301516016825283832055601790522061177d8582613862565b50600060138560405161179091906137a3565b908152604051908190036020018120600301805492151560ff199093169290921790915533906117c19086906137a3565b6040518091039020827f02f89c24f8e51cceaf7b646032b17f3dfbc5318863585b90a1352ff59ab148da85600001518660200151604051611803929190613946565b60405180910390a4600061181f600b546001600160a01b031690565b6001600160a01b03163460405160006040518083038185875af1925050503d8060008114611869576040519150601f19603f3d011682016040523d82523d6000602084013e61186e565b606091505b50509050806118b85760405162461bcd60e51b815260206004820152601660248201527511985a5b1959081d1bc81cd95b99081c185e5b595b9d60521b60448201526064016109ed565b509150506118c66001600c55565b919050565b6118d361246d565b6010610d818282613862565b601760205260009081526040902080546118f890613690565b80601f016020809104026020016040519081016040528092919081815260200182805461192490613690565b80156119715780601f1061194657610100808354040283529160200191611971565b820191906000526020600020905b81548152906001019060200180831161195457829003601f168201915b505050505081565b6000818152600260205260408120546001600160a01b0316806108ba5760405162461bcd60e51b8152602060048201526018602482015277115490cdcc8c4e881a5b9d985b1a59081d1bdad95b88125160421b60448201526064016109ed565b6119e161246d565b6001600160a01b038116611a305760405162461bcd60e51b8152602060048201526016602482015275416464726573732063616e6e6f74206265207a65726f60501b60448201526064016109ed565b601280546001600160a01b0319166001600160a01b0383169081179091556040519081527f9a7b12086ecc1d5c7e25db5f792d086e440b089f91ebbdb19380452deea6703b9060200160405180910390a150565b611a8c61246d565b82518451148015611a9e575081518451145b8015611aab575080518451145b611af75760405162461bcd60e51b815260206004820152601c60248201527f417272617973206d75737420686176652073616d65206c656e6774680000000060448201526064016109ed565b60005b8451811015611b8557611b73858281518110611b1857611b186137bf565b6020026020010151858381518110611b3257611b326137bf565b6020026020010151858481518110611b4c57611b4c6137bf565b6020026020010151858581518110611b6657611b666137bf565b6020026020010151610d85565b80611b7d816137d5565b915050611afa565b5050505050565b611b9461246d565b600d54811015611bf55760405162461bcd60e51b815260206004820152602660248201527f4e657720737570706c792063616e6e6f74206265206c657373207468616e20636044820152651d5c9c995b9d60d21b60648201526084016109ed565b600f55565b60006001600160a01b038216611c645760405162461bcd60e51b815260206004820152602960248201527f4552433732313a2061646472657373207a65726f206973206e6f7420612076616044820152683634b21037bbb732b960b91b60648201526084016109ed565b506001600160a01b031660009081526003602052604090205490565b611c8861246d565b611c9260006125f6565b565b611c9c61246d565b601382604051611cac91906137a3565b9081526040519081900360200190206003015460ff16611d025760405162461bcd60e51b81526020600482015260116024820152704e4654206e6f7420617661696c61626c6560781b60448201526064016109ed565b80601383604051611d1391906137a3565b908152604051908190036020019020600101555050565b6000611d3582612450565b611d515760405162461bcd60e51b81526004016109ed90613711565b5060009081526016602052604090205490565b6060600180546108cf90613690565b610d81338383612648565b6000611d89600d5490565b905090565b60606000611d9a611f18565b90506000816001600160401b03811115611db657611db6613101565b604051908082528060200260200182016040528015611de957816020015b6060815260200190600190039081611dd45790505b5090506000805b601454811015611f0f57600060148281548110611e0f57611e0f6137bf565b906000526020600020018054611e2490613690565b80601f0160208091040260200160405190810160405280929190818152602001828054611e5090613690565b8015611e9d5780601f10611e7257610100808354040283529160200191611e9d565b820191906000526020600020905b815481529060010190602001808311611e8057829003601f168201915b50505050509050601381604051611eb491906137a3565b9081526040519081900360200190206003015460ff1615611efc5780848481518110611ee257611ee26137bf565b60200260200101819052508280611ef8906137d5565b9350505b5080611f07816137d5565b915050611df0565b50909392505050565b600080805b601454811015611f8e57601360148281548110611f3c57611f3c6137bf565b90600052602060002001604051611f539190613968565b9081526040519081900360200190206003015460ff1615611f7c5781611f78816137d5565b9250505b80611f86816137d5565b915050611f1d565b50919050565b611f9e3383612260565b611fba5760405162461bcd60e51b81526004016109ed906136c4565b611fc684848484612716565b50505050565b60148181548110611fdc57600080fd5b9060005260206000200160009150905080546118f890613690565b60606108ba82612749565b60008060008061201186612450565b61202d5760405162461bcd60e51b81526004016109ed90613711565b6000868152601660205260408120549061271061204a838961376a565b6120549190613781565b6011546012546001600160a01b039182169b91169950909750879650945050505050565b600061208382612450565b6120db5760405162461bcd60e51b815260206004820152602360248201527f43726561746f7220717565727920666f72206e6f6e6578697374656e7420746f60448201526235b2b760e91b60648201526084016109ed565b506000908152601560205260409020546001600160a01b031690565b6120ff61246d565b6001600160a01b0381166121645760405162461bcd60e51b815260206004820152602660248201527f4f776e61626c653a206e6577206f776e657220697320746865207a65726f206160448201526564647265737360d01b60648201526084016109ed565b61216d816125f6565b50565b61217861246d565b600e55565b60006001600160e01b03198216632483248360e11b14806108ba57506108ba82612844565b6121ab81612450565b61216d5760405162461bcd60e51b8152602060048201526018602482015277115490cdcc8c4e881a5b9d985b1a59081d1bdad95b88125160421b60448201526064016109ed565b600081815260046020526040902080546001600160a01b0319166001600160a01b038416908117909155819061222782611979565b6001600160a01b03167f8c5be1e5ebec7d5bd14f71427d1e84f3dd0314c0f7b2291e5b200ac8c7c3b92560405160405180910390a45050565b60008061226c83611979565b9050806001600160a01b0316846001600160a01b031614806122b357506001600160a01b0380821660009081526005602090815260408083209388168352929052205460ff165b806122d75750836001600160a01b03166122cc84610952565b6001600160a01b0316145b949350505050565b826001600160a01b03166122f282611979565b6001600160a01b0316146123185760405162461bcd60e51b81526004016109ed906139de565b6001600160a01b03821661237a5760405162461bcd60e51b8152602060048201526024808201527f4552433732313a207472616e7366657220746f20746865207a65726f206164646044820152637265737360e01b60648201526084016109ed565b6123878383836001612869565b826001600160a01b031661239a82611979565b6001600160a01b0316146123c05760405162461bcd60e51b81526004016109ed906139de565b600081815260046020908152604080832080546001600160a01b03199081169091556001600160a01b0387811680865260038552838620805460001901905590871680865283862080546001019055868652600290945282852080549092168417909155905184937fddf252ad1be2c89b69c2b068fc378daa952ba7f163c4a11628f55a4df523b3ef91a4505050565b6000908152600260205260409020546001600160a01b0316151590565b600b546001600160a01b03163314611c925760405162461bcd60e51b815260206004820181905260248201527f4f776e61626c653a2063616c6c6572206973206e6f7420746865206f776e657260448201526064016109ed565b610d81828260405180602001604052806000815250612875565b6124ea82612450565b61254d5760405162461bcd60e51b815260206004820152602e60248201527f45524337323155524953746f726167653a2055524920736574206f66206e6f6e60448201526d32bc34b9ba32b73a103a37b5b2b760911b60648201526084016109ed565b6000828152600a602052604090206125658282613862565b506040518281527ff8e1a15aba9398e019f0b49df1a4fde98ee17ae345cb5f6b5e2c27f5033e8ce79060200160405180910390a15050565b6002600c54036125ef5760405162461bcd60e51b815260206004820152601f60248201527f5265656e7472616e637947756172643a207265656e7472616e742063616c6c0060448201526064016109ed565b6002600c55565b600b80546001600160a01b038381166001600160a01b0319831681179093556040519116919082907f8be0079c531659141344cd1fd0a4f28419497f9722a3daafe3b4186f6b6457e090600090a35050565b816001600160a01b0316836001600160a01b0316036126a95760405162461bcd60e51b815260206004820152601960248201527f4552433732313a20617070726f766520746f2063616c6c65720000000000000060448201526064016109ed565b6001600160a01b03838116600081815260056020908152604080832094871680845294825291829020805460ff191686151590811790915591519182527f17307eab39ab6107e8899845ad3d59bd9653f200f220920489ca2b5937696c31910160405180910390a3505050565b6127218484846122df565b61272d848484846128a8565b611fc65760405162461bcd60e51b81526004016109ed90613a23565b6060612754826121a2565b6000828152600a60205260408120805461276d90613690565b80601f016020809104026020016040519081016040528092919081815260200182805461279990613690565b80156127e65780601f106127bb576101008083540402835291602001916127e6565b820191906000526020600020905b8154815290600101906020018083116127c957829003601f168201915b5050505050905060006127f76129a9565b90508051600003612809575092915050565b81511561283b578082604051602001612823929190613a75565b60405160208183030381529060405292505050919050565b6122d7846129b8565b60006001600160e01b0319821663780e9d6360e01b14806108ba57506108ba82612a1f565b611fc684848484612a6f565b61287f8383612b9c565b61288c60008484846128a8565b610a8e5760405162461bcd60e51b81526004016109ed90613a23565b60006001600160a01b0384163b1561299e57604051630a85bd0160e11b81526001600160a01b0385169063150b7a02906128ec903390899088908890600401613aa4565b6020604051808303816000875af1925050508015612927575060408051601f3d908101601f1916820190925261292491810190613ae1565b60015b612984573d808015612955576040519150601f19603f3d011682016040523d82523d6000602084013e61295a565b606091505b50805160000361297c5760405162461bcd60e51b81526004016109ed90613a23565b805181602001fd5b6001600160e01b031916630a85bd0160e11b1490506122d7565b506001949350505050565b6060601080546108cf90613690565b60606129c3826121a2565b60006129cd6129a9565b905060008151116129ed5760405180602001604052806000815250612a18565b806129f784612d17565b604051602001612a08929190613a75565b6040516020818303038152906040525b9392505050565b60006001600160e01b031982166380ac58cd60e01b1480612a5057506001600160e01b03198216635b5e139f60e01b145b806108ba57506301ffc9a760e01b6001600160e01b03198316146108ba565b6001811115612ade5760405162461bcd60e51b815260206004820152603560248201527f455243373231456e756d657261626c653a20636f6e7365637574697665207472604482015274185b9cd9995c9cc81b9bdd081cdd5c1c1bdc9d1959605a1b60648201526084016109ed565b816001600160a01b038516612b3a57612b3581600880546000838152600960205260408120829055600182018355919091527ff3f7a9fe364faab93b216da50a3214154f22a0a2b415b23a84c8169e8b636ee30155565b612b5d565b836001600160a01b0316856001600160a01b031614612b5d57612b5d8582612da9565b6001600160a01b038416612b7957612b7481612e46565b611b85565b846001600160a01b0316846001600160a01b031614611b8557611b858482612ef5565b6001600160a01b038216612bf25760405162461bcd60e51b815260206004820181905260248201527f4552433732313a206d696e7420746f20746865207a65726f206164647265737360448201526064016109ed565b612bfb81612450565b15612c485760405162461bcd60e51b815260206004820152601c60248201527f4552433732313a20746f6b656e20616c7265616479206d696e7465640000000060448201526064016109ed565b612c56600083836001612869565b612c5f81612450565b15612cac5760405162461bcd60e51b815260206004820152601c60248201527f4552433732313a20746f6b656e20616c7265616479206d696e7465640000000060448201526064016109ed565b6001600160a01b038216600081815260036020908152604080832080546001019055848352600290915280822080546001600160a01b0319168417905551839291907fddf252ad1be2c89b69c2b068fc378daa952ba7f163c4a11628f55a4df523b3ef908290a45050565b60606000612d2483612f39565b60010190506000816001600160401b03811115612d4357612d43613101565b6040519080825280601f01601f191660200182016040528015612d6d576020820181803683370190505b5090508181016020015b600019016f181899199a1a9b1b9c1cb0b131b232b360811b600a86061a8153600a8504945084612d7757509392505050565b60006001612db684611bfa565b612dc091906137ee565b600083815260076020526040902054909150808214612e13576001600160a01b03841660009081526006602090815260408083208584528252808320548484528184208190558352600790915290208190555b5060009182526007602090815260408084208490556001600160a01b039094168352600681528383209183525290812055565b600854600090612e58906001906137ee565b60008381526009602052604081205460088054939450909284908110612e8057612e806137bf565b906000526020600020015490508060088381548110612ea157612ea16137bf565b6000918252602080832090910192909255828152600990915260408082208490558582528120556008805480612ed957612ed9613afe565b6001900381819060005260206000200160009055905550505050565b6000612f0083611bfa565b6001600160a01b039093166000908152600660209081526040808320868452825280832085905593825260079052919091209190915550565b60008072184f03e93ff9f4daa797ed6e38ed64bf6a1f0160401b8310612f785772184f03e93ff9f4daa797ed6e38ed64bf6a1f0160401b830492506040015b6d04ee2d6d415b85acef81000000008310612fa4576d04ee2d6d415b85acef8100000000830492506020015b662386f26fc100008310612fc257662386f26fc10000830492506010015b6305f5e1008310612fda576305f5e100830492506008015b6127108310612fee57612710830492506004015b60648310613000576064830492506002015b600a83106108ba5760010192915050565b6001600160e01b03198116811461216d57600080fd5b60006020828403121561303957600080fd5b8135612a1881613011565b60005b8381101561305f578181015183820152602001613047565b50506000910152565b60008151808452613080816020860160208601613044565b601f01601f19169290920160200192915050565b602081526000612a186020830184613068565b6000602082840312156130b957600080fd5b5035919050565b80356001600160a01b03811681146118c657600080fd5b600080604083850312156130ea57600080fd5b6130f3836130c0565b946020939093013593505050565b634e487b7160e01b600052604160045260246000fd5b604051601f8201601f191681016001600160401b038111828210171561313f5761313f613101565b604052919050565b60006001600160401b0383111561316057613160613101565b613173601f8401601f1916602001613117565b905082815283838301111561318757600080fd5b828260208301376000602084830101529392505050565b600082601f8301126131af57600080fd5b612a1883833560208501613147565b6000602082840312156131d057600080fd5b81356001600160401b038111156131e657600080fd5b6122d78482850161319e565b6080815260006132056080830187613068565b60208301959095525060408101929092521515606090910152919050565b60008060006060848603121561323857600080fd5b613241846130c0565b925061324f602085016130c0565b9150604084013590509250925092565b6000806040838503121561327257600080fd5b50508035926020909101359150565b6000806000806080858703121561329757600080fd5b84356001600160401b03808211156132ae57600080fd5b6132ba8883890161319e565b955060208701359150808211156132d057600080fd5b506132dd8782880161319e565b949794965050505060408301359260600135919050565b6000806040838503121561330757600080fd5b82356001600160401b0381111561331d57600080fd5b6133298582860161319e565b925050613338602084016130c0565b90509250929050565b60006020828403121561335357600080fd5b612a18826130c0565b60006001600160401b0382111561337557613375613101565b5060051b60200190565b600082601f83011261339057600080fd5b813560206133a56133a08361335c565b613117565b82815260059290921b840181019181810190868411156133c457600080fd5b8286015b848110156134035780356001600160401b038111156133e75760008081fd5b6133f58986838b010161319e565b8452509183019183016133c8565b509695505050505050565b600082601f83011261341f57600080fd5b8135602061342f6133a08361335c565b82815260059290921b8401810191818101908684111561344e57600080fd5b8286015b848110156134035780358352918301918301613452565b6000806000806080858703121561347f57600080fd5b84356001600160401b038082111561349657600080fd5b6134a28883890161337f565b955060208701359150808211156134b857600080fd5b6134c48883890161337f565b945060408701359150808211156134da57600080fd5b6134e68883890161340e565b935060608701359150808211156134fc57600080fd5b506135098782880161340e565b91505092959194509250565b6000806040838503121561352857600080fd5b82356001600160401b0381111561353e57600080fd5b61354a8582860161319e565b95602094909401359450505050565b6000806040838503121561356c57600080fd5b613575836130c0565b91506020830135801515811461358a57600080fd5b809150509250929050565b6000602080830181845280855180835260408601915060408160051b870101925083870160005b828110156135ea57603f198886030184526135d8858351613068565b945092850192908501906001016135bc565b5092979650505050505050565b6000806000806080858703121561360d57600080fd5b613616856130c0565b9350613624602086016130c0565b92506040850135915060608501356001600160401b0381111561364657600080fd5b8501601f8101871361365757600080fd5b61350987823560208401613147565b6000806040838503121561367957600080fd5b613682836130c0565b9150613338602084016130c0565b600181811c908216806136a457607f821691505b602082108103611f8e57634e487b7160e01b600052602260045260246000fd5b6020808252602d908201527f4552433732313a2063616c6c6572206973206e6f7420746f6b656e206f776e6560408201526c1c881bdc88185c1c1c9bdd9959609a1b606082015260800190565b60208082526023908201527f526f79616c747920717565727920666f72206e6f6e6578697374656e7420746f60408201526235b2b760e91b606082015260800190565b634e487b7160e01b600052601160045260246000fd5b80820281158282048414176108ba576108ba613754565b60008261379e57634e487b7160e01b600052601260045260246000fd5b500490565b600082516137b5818460208701613044565b9190910192915050565b634e487b7160e01b600052603260045260246000fd5b6000600182016137e7576137e7613754565b5060010190565b818103818111156108ba576108ba613754565b808201808211156108ba576108ba613754565b601f821115610a8e57600081815260208120601f850160051c8101602086101561383b5750805b601f850160051c820191505b8181101561385a57828155600101613847565b505050505050565b81516001600160401b0381111561387b5761387b613101565b61388f816138898454613690565b84613814565b602080601f8311600181146138c457600084156138ac5750858301515b600019600386901b1c1916600185901b17855561385a565b600085815260208120601f198616915b828110156138f3578886015182559484019460019091019084016138d4565b50858210156139115787850151600019600388901b60f8161c191681555b5050505050600190811b01905550565b6060815260006139346060830186613068565b60208301949094525060400152919050565b6040815260006139596040830185613068565b90508260208301529392505050565b600080835461397681613690565b6001828116801561398e57600181146139a3576139d2565b60ff19841687528215158302870194506139d2565b8760005260208060002060005b858110156139c95781548a8201529084019082016139b0565b50505082870194505b50929695505050505050565b60208082526025908201527f4552433732313a207472616e736665722066726f6d20696e636f72726563742060408201526437bbb732b960d91b606082015260800190565b60208082526032908201527f4552433732313a207472616e7366657220746f206e6f6e20455243373231526560408201527131b2b4bb32b91034b6b83632b6b2b73a32b960711b606082015260800190565b60008351613a87818460208801613044565b835190830190613a9b818360208801613044565b01949350505050565b6001600160a01b0385811682528416602082015260408101839052608060608201819052600090613ad790830184613068565b9695505050505050565b600060208284031215613af357600080fd5b8151612a1881613011565b634e487b7160e01b600052603160045260246000fdfea264697066735822122096462605947c5d12b19932984ceece06d2cc2fc7701c54ffa69368e64487412764736f6c63430008110033",
  "linkReferences": {},
  "deployedLinkReferences": {}
}